:0A0000000C942A000C9400000C94EC
:10000A0000000C9400000C9400000C9400000C9466
:10001A0000000C9400000C9400000C9400000C9456
:10002A0000000C9400000C9400000C9400000C9446
:10003A0000000C9400000C9400000C9400000C9436
:10004A0000000C9400000C940000F894EE27ECBB1E
:10005A00F1E0F5BFE5BF8DE0A2E0BB27ED938A95FD
:10006A00E9F780E098E0A0E6ED930197E9F7EFE57C
:10007A00EDBFE8E0EEBFC0E6D2E00C944400E0E059
:10008A00EABBEBBBE1E0E7BBE8BBE0E0E4BBE5BB16
:10009A00E1BBE0E8E2BBE0E0E3BFE2BFECBFEFBDFB
:1000AA00EEBDEDBDECBDE7BDE6BDEBBDEABDE9BD0C
:1000BA00E8BDE2BDE5BDE4BDE3BDE9BFE5BFE4BF20
:1000CA00EAB9E0E8E8B9E0E0E0BFE6B9EDB9E6BFD1
:1000DA0087990AC0C098A8EEB3E00E947B00C09A34
:1000EA00A8EEB3E00E947B00F3CFFFCF109639F061
:1000FA00A8958DEC9AE00197F1F71197C9F7089541
:00000001FF
