:040000000C9430002C
:100004000C9474000C94FF000C9400010C940000F8
:100014000C9400000C9400000C9400000C9400005C
:100024000C94AB010C9400000C9468010C94000037
:100034000C9400000C9400000C9400000C9400003C
:100044000C9400000C9400000C9400000C9400002C
:100054003F065B4F666D7D077F6F0040F894EE2787
:10006400ECBBF1E0F5BFE5BF8DE0A2E0BB27ED936B
:100074008A95E9F780E098E0A0E6ED930197E9F727
:10008400EFE5EDBFE8E0EEBFC0E6D2E00C94B201CC
:10009400AA932C978CE0A0E0B0E0E4E5F0E00E94A5
:1000A400DB02EC85F0E0DE01AE0FBF1FEC91E095C2
:1000B4002D960895AA93E881E150E883EF5F81F0DB
:1000C400F894EFEFEBBBA8ECB0E00E94A802EAB70B
:1000D400E062EABF7894A8ECB0E00E94A802EBCFFB
:1000E400219608950E947E021A93E0E1F7E23F010F
:1000F40083991BC010E0E0916102EF5FE09361021D
:10010400E150A0916102AA307CF0E0E0E09361024A
:10011400E0916002EF5FE0936002A0916002AA3078
:100124001CF0E0E0E09360021AC011E0E09161028B
:10013400E150E0936102EF5FA0916102A0307CF492
:10014400E9E0E0936102E0916002E150E093600233
:10015400A0916002A0301CF4E9E0E0936002E09119
:100164006802F0E0309779F4113011F4E0E008C04F
:10017400E0916202F09163020E948C0219F4E1E0C2
:10018400E093680238C0E130A0E0FA0779F4103057
:1001940011F4E0E008C0E0916402F09165020E946D
:1001A4008C0219F4E2E0E093680225C0E230A0E09A
:1001B400FA07A9F4113011F4E0E00EC0E0916602F0
:1001C400F09167020E948C0249F4969A55240E9489
:1001D4009302A5E06FDFE3E0E09368020CC0E33034
:1001E400A0E0FA0741F49698E1E05E2E0E949302A3
:1001F400E0E0E093680219919EC018950E947E0287
:10020400E0916902F0E0309761F40E949902E09372
:100214006A02F0936B02A1E04DDFE1E0E093690232
:1002240051C0E130A0E0FA0789F40E949E020E94C6
:100234008C0259F00E949902E0936C02F0936D02D3
:10024400A2E038DFE2E0E09369023CC0E230A0E0E3
:10025400FA07C1F50E94A3020E948C0299F10E9440
:100264009902E0936E02F0936F020E949E02A3E053
:10027400B0E00E94C202A5E0B0E00E94A3020E9486
:10028400C202A7E0B0E0E0916E02F0916F020E941A
:10029400C2020E949E02E0936202F09363020E94F3
:1002A400A302E0936402F0936502E0916E02F09180
:1002B4006F02E0936602F0936702A3E0FBDEE0E0E6
:1002C400E0936902EAB7E062EABF35C00E947E02A9
:1002D400EFE4E2BF062C072871F1C098C198F3013E
:1002E40031973F01062C072899F40E9493020E943B
:1002F4009902A1E0B0E00E94C202A0916802A3307A
:1003040019F0E0E0E0936802E0E0E093690213C0D2
:10031400A0917002E1E0EA27E0937002E03031F44A
:10032400A0916002B5DEEBBBC09A05C0A09161024A
:10033400AFDEEBBBC19AE991EFBFF991E991B991B5
:10034400A9919991899179916991F990199009905C
:100354001895EA93E3E5EDBDE3E3ECBDE991189567
:10036400EFE7EABBEBBBE3E0E7BBE4E0E8BBE0E0DC
:10037400E4BBE5BBE0E4E1BBECE4E2BBE3E0E3BF08
:10038400EFE4E2BFE0E0ECBFEFBDE5E0EEBDE3E5A6
:10039400EDBDE3E3ECBDE0E0E7BDE6BDEBBDEABDEA
:1003A400E9BDE8BDE5E0E9BFEBB7E066EBBFE2E03D
:1003B400E5BFE0E0E4BFE0E6EABF7894A0E0B0E0A7
:1003C4000E94B6025E2E552019F4969A552403C055
:1003D4009698E1E05E2EE1E0E51529F4E0E1F7E22C
:1003E4003F01E0E003C066247724E3E0E093680281
:1003F400A1E0B0E00E94B202E0936002F0936102D7
:10040400A0916102A03064F0A0916102AA3044F48A
:10041400A0916002A03024F0A0916002AA300CF0F8
:1004240001C005C0E0E0E0936102E0936002A3E054
:10043400B0E00E94B202E0936202F0936302A5E08E
:10044400B0E00E94B202E0936402F0936502A7E078
:10045400B0E00E94B202E0936602F0936702A091BA
:100464006302A03064F1A0916302AA3044F5A09124
:100474006202A03024F1A0916202AA3004F5A09196
:100484006502A030E4F0A0916502AA30C4F4A09102
:100494006402A030A4F0A0916402AA3084F4A09174
:1004A4006702A03064F0A0916702AA3044F4A091DE
:1004B4006602A03024F0A0916602AA300CF001C0BC
:1004C40012C0E3E0E0936302E0E0E0936202E1E063
:1004D400E0936502E0E0E0936402E4E0E093670205
:1004E400E0E0E0936602789403D08895FECFFFCFD6
:1004F400E5B7E068E5BF08950A921A92FA926A9302
:100504007A938A939A93AA93BA93EA93FA93EFB756
:10051400EA930895A0916002B0916102EA17FB0783
:100524000895E52DA0E0B0E00E94CA020895E0918C
:100534006002F09161020895E0916A02F0916B0209
:100544000895E0916C02F0916D020895109639F0CF
:10055400A8958DEC9AE00197F1F71197C9F70895E2
:10056400119602D0FE2F1197E199FECFFF93FFB7AA
:10057400F894AEBBBFBBE09AEDB3FFBFFF91089503
:1005840007D01196EF93EF2F03D0EF9111970895B1
:10059400E19B02C0A895FCCF9FB7F894AEBBBFBB4C
:1005A400E09A8DB3E81719F0EDBBE29AE19A9FBF88
:1005B4000895AC0FBD1F05900D928A95E1F708953B
:00000001FF
