:100000000C9430000C9477000C9481000C949000B8
:100010000C9400000C9400000C9400000C94000060
:100020000C9400000C94FD000C9400000C94000053
:100030000C9400000C9400000C9400000C94000040
:100040000C9400000C9400000C9400000C94000030
:100050000C9400003F065B4F666D7D077F6F00408C
:10006000F894EE27ECBBF1E0F5BFE5BF8DE0A2E030
:10007000BB27ED938A95E9F780E098E0A0E6ED9341
:100080000197E9F7EFE5EDBFE8E0EEBFC0E6D2E0AB
:100090000C944901AA932C978CE0A0E0B0E0E4E531
:1000A000F0E00E942903EC85F0E0DE01AE0FBF1FF7
:1000B000EC91E0952D960895AA93F894E881E1508B
:1000C000E883EF5F89F0C09AC19AA09160020E9414
:1000D000C102A09161020E94C102C098C198A4E629
:1000E000B0E00E94F602EACF789421960895EA9350
:1000F000FA93EFB7EA93E5E5F0E04F01EAB7E06481
:1001000009C0EA93FA93EFB7EA93EAEAF0E04F0105
:10011000EAB7E068EABFE991EFBFF991E991189574
:100120000E94C802A2E3B0E00E94F602E0916B02D6
:10013000F0E0309761F40E94D602E0936C02F093F5
:100140006D02A1E0B9DFE1E0E0936B0251C0E13064
:10015000A0E0FA0789F40E94DB020E94E00259F055
:100160000E94D602E0936E02F0936F02A2E0A4DF39
:10017000E2E0E0936B023CC0E230A0E0FA07C1F598
:100180000E94E7020E94E00299F10E94D602E093E9
:100190007002F09371020E94DB02A3E0B0E00E94C3
:1001A0001003A5E0B0E00E94E7020E941003A7E060
:1001B000B0E0E0917002F09171020E9410030E9481
:1001C000DB02E0936402F09365020E94E702E09391
:1001D0006602F0936702E0917002F0917102E09381
:1001E0006802F0936902A3E067DFE0E0E0936B024E
:1001F000A2E3B0E00E94F6023EC00E94C802E4ED15
:10020000EDBDEDECECBD062C072891F1C098C1982E
:10021000F30131973F01062C072899F40E94EC0264
:100220000E94D602A1E0B0E00E941003A0916A02F1
:10023000A33019F0E0E0E0936A02E0E0E0936B02A3
:100240001AC0A0917202E1E0EA27E09372020E94D4
:10025000F202E0917202E03031F4A09160021ADF04
:10026000EBBBC09A05C0A091610214DFEBBBC19A41
:10027000E8B7E460E8BFE991EFBFF991E991B9917E
:10028000A9919991899179916991F9901990099021
:100290001895EFE7EABBEBBBE3E0E7BBE4E0E8BBC4
:1002A000E0E0E4BBE5BBE0E4E1BBECE4E2BBE0E0C2
:1002B000EFBDE1E0EEBDE4EDEDBDEDECECBDE0E069
:1002C000E7BDE6BDEBBDEABDE9BDE8BDE4E0E9BFE1
:1002D000EBB7E06EEBBFEAE0E5BFE0E0E4BFE0EEE5
:1002E000EABF7894A0E0B0E00E9404035E2E55209F
:1002F00019F4969A552403C09698E1E05E2EE1E049
:10030000E51529F4E4EFF1E03F01E0E003C06624E5
:100310007724E3E0E0936A02A1E0B0E00E940003EA
:10032000E0936002F0936102A0916102A03064F05A
:10033000A0916102AA3044F4A0916002A03024F0A0
:10034000A0916002AA300CF001C005C0E0E0E0938B
:100350006102E0936002A3E0B0E00E940003E0933A
:100360006402F0936502A5E0B0E00E940003E09310
:100370006602F0936702A7E0B0E00E940003E093FA
:100380006802F0936902A0916502A03064F1A09127
:100390006502AA3044F5A0916402A03024F1A09136
:1003A0006402AA3004F5A0916702A030E4F0A091A5
:1003B0006702AA30C4F4A0916602A030A4F0A09114
:1003C0006602AA3084F4A0916902A03064F0A09182
:1003D0006902AA3044F4A0916802A03024F0A091F0
:1003E0006802AA300CF001C012C0E3E0E09365029D
:1003F000E0E0E0936402E1E0E0936702E0E0E09394
:100400006602E4E0E0936902E0E0E0936802789439
:10041000B4D0E4EFF1E03F01EAEAF0E0E815F905D5
:1004200029F0E5E5F0E0E815F90509F401C0F4CF9D
:10043000F401EA3AA0E0FA0711F410E005C0E5354E
:10044000A0E0FA0709F411E00E94F202E12FF0E0C7
:100450003097D1F4E0916102EF5FE0936102E150E7
:10046000A0916102AA307CF0E0E0E0936102E091AB
:100470006002EF5FE0936002A0916002AA301CF07E
:10048000E0E0E09360021DC0E130A0E0FA07C9F4AB
:10049000E0916102E150E0936102EF5FA09161029F
:1004A000A0307CF4E9E0E0936102E0916002E15069
:1004B000E0936002A0916002A0301CF4E9E0E093B8
:1004C00060020E94F202E0916A02F0E0309779F453
:1004D000113011F4E0E008C0E0916402F09165028F
:1004E0000E94E00219F4E1E0E0936A0238C0E130D2
:1004F000A0E0FA0779F4103011F4E0E008C0E091D0
:100500006602F09167020E94E00219F4E2E0E093D3
:100510006A0225C0E230A0E0FA07A9F4113011F414
:10052000E0E00EC0E0916802F09169020E94E002F2
:1005300049F4969A55240E94EC02A5E0BDDDE3E063
:10054000E0936A020CC0E330A0E0FA0741F4969809
:10055000E1E05E2E0E94EC02E0E0E0936A020E947D
:10056000F202EFEFF0E04F010E94D602E093620248
:10057000F093630288954DCFFFCFE5B7E068E5BF04
:1005800008950E944A00EBBBA4E6B0E00C94F6028A
:100590000A921A92FA926A937A938A939A93AA93F6
:1005A000BA93EA93FA93EFB7EA930895E091600261
:1005B000F09161020895E0916C02F0916D0208954E
:1005C000A0916002B0916102EA17FB070895E091E3
:1005D0006E02F0916F020895E52DA0E0B0E00E9458
:1005E00018030895AAE0B0E00C94F602109639F0D2
:1005F000A8958DEC9AE00197F1F71197C9F7089546
:10060000119602D0FE2F1197E199FECFFF93FFB70D
:10061000F894AEBBBFBBE09AEDB3FFBFFF91089566
:1006200007D01196EF93EF2F03D0EF911197089514
:10063000E19B02C0A895FCCF9FB7F894AEBBBFBBAF
:10064000E09A8DB3E81719F0EDBBE29AE19A9FBFEB
:100650000895AC0FBD1F05900D928A95E1F708959E
:00000001FF
