:020000000C945E
:1000020030000C9474000C947E000C948D000C94BF
:1000120000000C9400000C9400000C9400000C945E
:1000220000000C94F2000C9400000C9400000C945C
:1000320000000C9400000C9400000C9400000C943E
:1000420000000C9400000C9400000C9400000C942E
:1000520000003F065B4F666D7D077F6F0040F8949E
:10006200EE27ECBBF1E0F5BFE5BF8DE0A2E0BB27D8
:10007200ED938A95E9F780E098E0A0E6ED93019789
:10008200E9F7EFE5EDBFE8E0EEBFC0E6D2E00C94A1
:100092003E01AA932C978CE0A0E0B0E0E4E5F0E00A
:1000A2000E941203EC85F0E0DE01AE0FBF1FEC915F
:1000B200E0952D960895AA93E881E150E883EF5FD9
:1000C20081F0F894EFEFEBBBA4E6B0E00E94DF0210
:1000D200EAB7E062EABF7894A4E6B0E00E94DF02E9
:1000E200EBCF21960895EA93FA93EFB7EA93E5E509
:1000F200F0E04F01EAB7E06409C0EA93FA93EFB780
:10010200EA93EAEAF0E04F01EAB7E068EABFE99170
:10011200EFBFF991E99118950E94B102E0916B024B
:10012200F0E0309761F40E94BF02E0936C02F0931A
:100132006D02A1E0C0DFE1E0E0936B0251C0E1306B
:10014200A0E0FA0789F40E94C4020E94C90259F091
:100152000E94BF02E0936E02F0936F02A2E0ABDF57
:10016200E2E0E0936B023CC0E230A0E0FA07C1F5A6
:100172000E94D0020E94C90299F10E94BF02E0933C
:100182007002F09371020E94C402A3E0B0E00E94E8
:10019200F902A5E0B0E00E94D0020E94F902A7E0B5
:1001A200B0E0E0917002F09171020E94F9020E94A7
:1001B200C402E0936402F09365020E94D002E093CD
:1001C2006602F0936702E0917002F0917102E0938F
:1001D2006802F0936902A3E06EDFE0E0E0936B0255
:1001E2003EC00E94B102EAECEDBDE0E0ECBD062C9F
:1001F200072891F1C098C198F30131973F01062C6D
:10020200072899F40E94D5020E94BF02A1E0B0E043
:100212000E94F902A0916A02A33019F0E0E0E09393
:100222006A02E0E0E0936B021AC0A0917202E1E080
:10023200EA27E09372020E94DB02E0917202E03050
:1002420031F4A091600225DFEBBBC09A05C0A091FA
:1002520061021FDFEBBBC19AE8B7E460E8BFE99136
:10026200EFBFF991E991B991A99199918991799108
:100272006991F990199009901895EFE7EABBEBBBE9
:10028200E3E0E7BBE4E0E8BBE0E0E4BBE5BBE0E4DD
:10029200E1BBECE4E2BBE0E0EFBDE2E0EEBDEAECA4
:1002A200EDBDE0E0ECBDE7BDE6BDEBBDEABDE9BDFD
:1002B200E8BDE4E0E9BFEBB7E06EEBBFEAE0E5BF23
:1002C200E0E0E4BFE0EEEABF7894A0E0B0E00E9494
:1002D200ED025E2E552019F4969A552403C0969885
:1002E200E1E05E2EE1E0E51529F4E0EDF7E03F0103
:1002F200E0E003C066247724E3E0E0936A02A1E031
:10030200B0E00E94E902E0936002F0936102A091E2
:100312006102A03064F0A0916102AA3044F4A0917D
:100322006002A03024F0A0916002AA300CF001C05B
:1003320005C0E0E0E0936102E0936002A3E0B0E078
:100342000E94E902E0936402F0936502A5E0B0E046
:100352000E94E902E0936602F0936702A7E0B0E030
:100362000E94E902E0936802F0936902A09165029B
:10037200A03064F1A0916502AA3044F5A091640214
:10038200A03024F1A0916402AA3004F5A091670282
:10039200A030E4F0A0916702AA30C4F4A0916602F2
:1003A200A030A4F0A0916602AA3084F4A091690260
:1003B200A03064F0A0916902AA3044F4A0916802CE
:1003C200A03024F0A0916802AA300CF001C012C043
:1003D200E3E0E0936502E0E0E0936402E1E0E093B1
:1003E2006702E0E0E0936602E4E0E0936902E0E0A5
:1003F200E09368027894B0D0EAEAF0E0E815F905F3
:1004020029F0E5E5F0E0E815F90509F401C0F4CFBB
:10041200F401EA3AA0E0FA0711F410E005C0E5356C
:10042200A0E0FA0709F411E00E94DB02E12FF0E0FC
:100432003097D1F4E0916102EF5FE0936102E15005
:10044200A0916102AA307CF0E0E0E0936102E091C9
:100452006002EF5FE0936002A0916002AA301CF09C
:10046200E0E0E09360021DC0E130A0E0FA07C9F4C9
:10047200E0916102E150E0936102EF5FA0916102BD
:10048200A0307CF4E9E0E0936102E0916002E15087
:10049200E0936002A0916002A0301CF4E9E0E093D6
:1004A20060020E94DB02E0916A02F0E0309779F488
:1004B200113011F4E0E008C0E0916402F0916502AD
:1004C2000E94C90219F4E1E0E0936A0238C0E13007
:1004D200A0E0FA0779F4103011F4E0E008C0E091EE
:1004E2006602F09167020E94C90219F4E2E0E09309
:1004F2006A0225C0E230A0E0FA07A9F4113011F433
:10050200E0E00EC0E0916802F09169020E94C90227
:1005120049F4969A55240E94D502A5E0CCDDE3E089
:10052200E0936A020CC0E330A0E0FA0741F4969827
:10053200E1E05E2E0E94D502E0E0E0936A020E94B2
:10054200DB02EFEFF0E04F010E94BF02E093620294
:10055200F093630251CFFFCFE5B7E068E5BF08959E
:100562000A921A92FA926A937A938A939A93AA9324
:10057200BA93EA93FA93EFB7EA930895E09160028F
:10058200F09161020895E0916C02F0916D0208957C
:10059200A0916002B0916102EA17FB070895E09111
:1005A2006E02F0916F020895E52DA0E0B0E00E9486
:1005B20001030895A4E1B0E00C94DF02109639F033
:1005C200A8958DEC9AE00197F1F71197C9F7089574
:1005D200119602D0FE2F1197E199FECFFF93FFB73C
:1005E200F894AEBBBFBBE09AEDB3FFBFFF91089595
:1005F20007D01196EF93EF2F03D0EF911197089543
:10060200E19B02C0A895FCCF9FB7F894AEBBBFBBDD
:10061200E09A8DB3E81719F0EDBBE29AE19A9FBF19
:100622000895AC0FBD1F05900D928A95E1F70895CC
:00000001FF
