:020000000C945E
:100002003D000C9457000C9400000C9400000C94DA
:1000120000000C9400000C9400000C9400000C945E
:1000220000000C9400000C9400000C9400000C944E
:1000320000000C9400000C9400000C9400000C943E
:1000420000000C9400000C9400000C9400000C942E
:1000520000001027E80364000A00010000100001FC
:1000620010000100427574746F6E20697320707203
:1000720065737365640A0A00F894EE27ECBBF1E03D
:10008200F5BFE5BF8DE0A2E0BB27ED938A95E9F7C6
:1000920080E098E0A0E6ED930197E9F7EFE5EDBF88
:1000A200E8E0EEBFC0E6D2E00C947E000A921A921B
:1000B200FA926A937A938A939A93AA93BA93EA9357
:1000C200FA93EFB7EA93A8ECB0E00E945902E6E691
:1000D200F0E0FA93EA9380E00E94F6012296E99119
:1000E200EFBFF991E991B991A9919991899179918A
:1000F2006991F99019900990189510E0E0E0EABB37
:10010200EBBBE1E0E7BBE8BBE0E0E4BBE5BBE1BBA6
:10011200E4E0E2BBEBB7E064EBBFE2E0E5BFE0E0C6
:10012200E4BFE0E4EABFE0E0EBB9E8E1EAB9E6E81F
:10013200E0BDE0E0E0BDE7E4E9B978940AD01E2F23
:100142001F3611F01F3411F4C09801C0C09AF6CFC7
:10015200FFCF5F9BFECFECB10895AA935D9BFECFCC
:10016200E881ECB921960895BA93AA93AA81F5DFA2
:10017200A881B981ED91FD913196FE93EE9323967C
:100182000895BA93AA9326970E94730210E0AC8551
:10019200BD85E0E0F0E0ED93FC93EA89FB893196BE
:1001A200EA8BFB8B3197E4912E2FE03009F415C1D5
:1001B200E12FE03039F4253211F411E002C00E943F
:1001C20034020AC1E130A9F4253219F40E94340242
:1001D20002C112E040E000E02D3211F401E0FCC067
:1001E2002B3211F44BE2F8C0203211F440E2F4C099
:1001F20002C0E23039F450E013E0203311F4006819
:10020200EBC003C0E33009F0E7C0203310F02A331B
:1002120008F007C0AAE05A9F502DE22FE0535E0F6C
:10022200DBC0E22FE33649F40E943B02E889F989F8
:10023200A481AA930E944102CEC0E33741F40E94F6
:100242003B020E9447020E941B021E2F0AC0E03797
:1002520061F40E943B020E9447020E9427021E2F65
:10026200086002600F7730E034C0E43611F0E936FE
:1002720011F4046002C0E53731F4E4E5F0E0EE8306
:10028200FF8315E00CC0E83511F4086003C0E837BD
:1002920009F0A1C0EEE5F0E0EE83FF8314E002FF77
:1002A20014C00E943B020E945102AB85AA233AF479
:1002B200EA85FB850E946702EA87FB874DE24030B0
:1002C20011F01F5F01C00B7F04C00E943B020E941D
:1002D200510200FD11C0151778F407FF08C002FF94
:1002E20004C00B7F242F115001C020E301C020E283
:1002F2000E9434025150EFCF312F01FF17C030302E
:10030200A1F003FF06C0EE81FF812591EE83FF83FA
:1003120005C0AE81BF812D91AE83BF830E9434029E
:10032200503009F051503150EACF4BC020E3EE81FA
:10033200FF810E946F02E887F987EE81FF81329682
:10034200EE83FF83E885F985AA85BB85AE17BF07D3
:1003520050F02F5FA885B985EA85FB85EA1BFB0B68
:10036200EA87FB87EFCF2A3328F003FF02C0295F19
:1003720001C0295D04FD1AC0213320F4A885B98586
:10038200119709F409C0531710F000FF01C013C000
:1003920020E207FF0BC020E3006102FF07C00B7FD2
:1003A2004A930E944102503009F051500E94340297
:1003B200503009F051503150A885B985129708F094
:1003C200B5CF00FF08C0503031F05150E0E2EA935F
:1003D2000E944102F8CF10E0E0CEAC85BD850E94BC
:1003E2006B020E947A0264960895FF92F82E269775
:1003F2001A930A93DE0114960E9463028D01E0E0D3
:10040200EC83ED83EE83EF83DE0118960E94630294
:100412000E946B02FA93EA931A930A93E5EBF0E0D7
:10042200FA93EA93DE011896ACDE198108812896C8
:10043200FF900895BA93AA93A991B991EE27FF2745
:100442006D91662311F03196FBCF0895BA93AA936A
:10045200AA27BB27E991F9910590002011F0119686
:10046200FBCFFD0108952A93AD85BE85EF85F889FE
:1004720009950895E889F9893497E88BF98B0895ED
:10048200AD85BE85EF85F88909950895A889B98952
:1004920014960E946B02EE83FF83AE81BF810895A2
:1004A200A889B98914960E946B02EA87FB8708958E
:1004B200109639F0A8958DEC9AE00197F1F7119713
:1004C200C9F708950024AF0DB01D0895F195E19587
:1004D200F0400895ED91FC91119708950590F491E3
:1004E200E02D08955A934A933A932A931A930A93C2
:1004F20008955D814C813B812A811981088108958B
:00000001FF
