:0C0000000C942A000C9400000C940000EA
:10000C000C9400000C9400000C9400000C94000064
:10001C000C9400000C9400000C9400000C94000054
:10002C000C9400000C9444000C9400000C94000000
:10003C000C9400000C9400000C9400000C94000034
:10004C000C9400000C940000F894EE27ECBBF1E04B
:10005C00F5BFE5BF8DE0A2E0BB27ED938A95E9F7EC
:10006C0080E098E0A0E6ED930197E9F7EFE5EDBFAE
:10007C00E8E0EEBFC0E6D2E00C945000EA93EFB794
:10008C00EA93EFB1E095E2BBE9B3EFB9E991EFBFC9
:10009C00E9911895E0E0EABBEFEFEBBBE0E4E7BBDE
:1000AC00E0E0E8BBE4BBE5BBEFEFE1BBE2BBE0EEBD
:1000BC00EDB9E0E0EEB9EEB1EFB17894FFCFFFCF40
:00000001FF
