:0A0000000C9461000C9400000C94B5
:10000A0000000C9400000C9400000C9400000C9466
:10001A0000000C9400000C9400000C9400000C9456
:10002A0000000C9400000C9400000C9400000C9446
:10003A0000000C9400000C9400000C9400000C9436
:10004A0000000C9400000C940000613A20257520F1
:10005A00623A20257520633A202575200D0A200072
:10006A00486967683A202566200D0A004C6F773A7E
:10007A00202566200D0A00506572696F643A2025B2
:10008A0066200D0A0066726571202566202C2044C0
:10009A007574793A2025662025200D0A20002D4EF8
:1000AA00414E000001002D4E414E00494E460000CF
:1000BA0001006002AE000000F894EE27ECBBF1E00C
:1000CA00F5BFE5BF8DE0A2E0BB27ED938A95E9F77E
:1000DA0080E098E0A0E6ED930197E9F7EAEBF0E01B
:1000EA0085919591009761F0A591B591059015902C
:1000FA00BF01F00105900D920197E1F7FB01F0CFE6
:10010A00EFE5EDBFE8E0EEBFC0E6D2E00C948D006B
:10011A006497E0E0EABBEBBBE8E8E7BBE0E0E8BBFA
:10012A00E4BBE5BBE0EAE1BBE0E0E2BBECE6E3BF4F
:10013A00E0E0E2BFE0E4ECBFE0E0E2BDEFE1E5BD14
:10014A00E0E0E4BDE7EDE3BDE0E0E9BFEBB9E8E1FB
:10015A00EAB9E6E8E0BDE0E0E0BDE7E4E9B9E0E0FD
:10016A00EFBDE0E0F0E0FDBDECBDE2E4EEBDE0E2B3
:10017A00E8BFE8B7E5FFFDCF0E9487058F01E2E0FF
:10018A00EEBDE0E2E8BFE8B7E5FFFDCF0E948705D4
:10019A009F01E2E4EEBDE0E2E8BFE8B7E5FFFDCF8C
:1001AA000E948705AF01E0E0EEBDE0E2E8BF20175C
:1001BA00310718F04217530708F4D7CFF901E01BAB
:1001CA00F10B662777270E9403070E948E05FA0122
:1001DA00E21BF30B662777270E9403070E94930509
:1001EA000E9498050E949D050E943D07E887F987AD
:1001FA006A877B87E4E5F0E0FA93EA93F8010E94C4
:10020A00A205F9010E94A205FA010E94A2058CE04A
:10021A000E9453042E96E885F9856A857B85A0E0BD
:10022A00B0EC88EA99E40E94DB070E94A705EAE697
:10023A00F0E0FA93EA93AA89BB898C899D890E9486
:10024A00AC05E6E7F0E0FA93EA93AE85BF858889C4
:10025A0099890E94AC05E1E8F0E0FA93EA930E94DA
:10026A00B9050E94AC05E885F9856A857B850E94F7
:10027A009D050E94DB07A0E0B0E088EC92E40E94B2
:10028A008D070E94BF08EFE8F0E0FA93EA930E9414
:10029A00BE050E94BE0588E00E9453042A96FFCF3D
:1002AA00FFCFAA935D9BFECFE881ECB92196089512
:1002BA00BA93AA93AA81F5DFA881B981ED91FD913C
:1002CA003196FE93EE93239608950E94C505E0E8C1
:1002DA00EA83EFE3EB830E94E108EE85FF85EF3FB7
:1002EA00AFEFFA0749F4E885F985FA93EA93A8EAA1
:1002FA00B0E00E947804B5C0EF3FAFE7FA0749F4CF
:10030A00E885F985FA93EA93A9EAB0E00E947804AD
:10031A00A8C0AB85A73010F0E6E0EB871B85E12F7C
:10032A001150E03019F00E94CC05F9CF0E949805CF
:10033A000E94DB0821F430E00E94CC052BC03B85EB
:10034A000E94D70509F008F40BC00E94CC050E9450
:10035A00D70528F00E94E2050E94E705F8CF0DC0F4
:10036A000E94D70540F40E94E2050E94F0050E940F
:10037A0093053150F5CF0E94CC050E9498050E9442
:10038A00F7050E9493050E94D70520F00E94E20516
:10039A000E94E70510E0EB85E117B8F1AC81BD8159
:1003AA008E819F810E94FE050E94F705DF01CB0125
:1003BA000E94CF040E94A705EC81FD816E817F8196
:1003CA000E94E2050E94DB070E94CA060E2F0E94C5
:1003DA0005060E940C06FF27662777270E94030757
:1003EA00AC81BD818E819F810E948D070E94E205AA
:1003FA000E9411060E949305E12F1F5FE03059F613
:10040A000E940506EEE2EC93C6CF0E9416063197CB
:10041A00AA85A08330302CF43195A885B985EDE200
:10042A0003C0A885B985EBE2EC930E9416060E94E8
:10043A0016063197BF01A32FEAE00E946508E05D26
:10044A00DB01EC930E9416063197BF01A32FEAE065
:10045A000E948F08E05DDB01EC93A885B985E0E096
:10046A00EC930E94E80860960895BA93AA93EF97CE
:10047A0061970E94DF0810E0FE01E85AFF4F0190E1
:10048A00F081E02DE887F987FE01EA5AFF4F0190D3
:10049A00F081E02DEE83FF83AE81BF81E0E0F0E0E2
:1004AA00ED93FC93DE01A45ABF4FED91FD91319675
:1004BA00FE93EE933197E4912E2FE03009F4E5C1D3
:1004CA00E12FE03039F4253211F411E002C00E9424
:1004DA001C06DAC1E130C1F4253219F40E941C0667
:1004EA00D2C112E0E0E0ED8B00E02D3211F401E020
:1004FA00CBC12B3219F4EBE2ED8BC6C1203219F4D1
:10050A00E0E2ED8BC1C102C0E23039F450E013E001
:10051A00203311F40068B8C102C0E33091F42033EB
:10052A0010F02A3308F007C0AAE05A9F502DE22F94
:10053A00E0535E0FA9C140E02E3211F414E0A4C1C9
:10054A000FC0E43099F4203310F02A3308F008C0C1
:10055A000062AAE04A9F402DE22FE0534E0F94C159
:10056A002C3619F4026015E08FC103C0E53009F09A
:10057A008BC1E22FE33659F40E9423060E942A0611
:10058A000E942306A481AA930E9431067CC1E53405
:10059A0011F0E53609F403C0E63609F048C0FE0159
:1005AA007696EE87FF870E9437060E94AF080E9460
:1005BA003E060E944306AD85AA2332F0AD89AB32CE
:1005CA0059F0A03281F017C00E9445060E94970692
:1005DA000E943E06EDE2ED8B07FF05C0ED89EA9326
:1005EA000E94310608C0EE85FF853196EE87FF87A7
:1005FA003197AD89A08305FF46E0263651F40E9463
:10060A0045060E94C4084A93AB89BC890E94E60445
:10061A0009C00E9445060E94C4084A932A93AC89DD
:10062A00BD8953DEFE0176960E944A061EC0E33754
:10063A0039F40E9443060E9452060E944A060EC0DE
:10064A00E037C1F40E9443060E945206EE87FF87F4
:10065A00AE85BF850E9491041E2F08600F77403037
:10066A0011F0411708F001C0142F40E0E0E0EC8BD4
:10067A0030E06DC0E43611F0E93611F4046002C0CE
:10068A00E537A1F4EAE0EC8B01FF08C0E0E0FAEC00
:10069A006AE97BE30E948E051AE022C0E0E1F7E2F4
:1006AA0060E070E00E948E0515E01AC0E83511F48A
:1006BA00086003C0E83709F0E6C0E0E1EC8B01FF0F
:1006CA0008C0E0E0F0E060E070E10E948E0518E00A
:1006DA0007C0E0E0F0E160E070E00E948E0514E0FF
:1006EA00403011F00F7701C041E001FF08C00E94BD
:1006FA0043060E94370614960E94AF080FC002FFF5
:10070A0007C00E9443060E9452060E94520806C071
:10071A000E9443060E94520666277727EA87FB87CC
:10072A006C877D8702FF12C0AD85AA2342F40E941E
:10073A0045060E9444080E943E06EDE2ED8BED89D3
:10074A00E03019F01F5F4F5F01C00B7F342F00FDAF
:10075A0014C0151710F4351708F00FC007FF08C0AA
:10076A0002FF04C00B7F2D89115001C020E301C094
:10077A0020E20E941C065150ECCF141790F400613D
:10078A0002FF06C00E94570609F05150115041500D
:10079A00E0E3EA930E943106503009F0515041508B
:1007AA00ECCF312FEC89E030B9F43030A1F003FFFF
:1007BA0006C0EE85FF852591EE87FF8705C0AE85C9
:1007CA00BF852D91AE87BF870E941C06503009F065
:1007DA0051503150EACF4DC00E9469060E946A0802
:1007EA002E2F2A3030F003FF02C0295C01C0295A9B
:1007FA0001C0205D04FD1FC0213350F40E949D05F5
:10080A00A130E0E0BE07E0E08E07E0E09E0709F4D1
:10081A000BC0431740F4531710F000FF01C010C07B
:10082A0020E207FF08C020E3006102FF04C00E9423
:10083A00570609F051500E941C06503009F05150D9
:10084A0031500E9469060E949B080E943E06EC896C
:10085A000E949D05FF27662777270E946A080E9443
:10086A008E05E889F9896A897B890E94DB0809F083
:10087A00B3CF00FF08C0503031F05150E0E2EA93A4
:10088A000E943106F8CF10E00DCEAE81BF810E94E2
:10089A00AB080E94E608EF966F960895FF92F82E2D
:1008AA0026971A930A93DE0114960E9440088D0136
:1008BA00E0E0EC83ED83EE83EF83DE0118960E947D
:1008CA0040080E94AB08FA93EA931A930A93EDE55B
:1008DA00F1E0FA93EA93DE011896C7DD19810881DF
:1008EA002896FF900895BA93AA93E991F991A9914C
:1008FA00B991CD0105900D920020E1F7FC01089510
:10090A00BA93AA93A991B991EE27FF276D9166230D
:10091A0011F03196FBCF0895BA93AA93AA27BB2761
:10092A00E991F9910590002011F01196FBCFFD0194
:10093A0008950E94C9087B816A81F981E88177FB61
:10094A00770F67FD7160972F9E5781F078F0983185
:10095A0090F4AA27BB27882708948795B795A79567
:10096A009A95D1F7EA23FB23682305C0E8947727F1
:10097A00EE27FF2766276F77769508F4606877F980
:10098A00A991B99189919991EA17FB0768077907A3
:10099A0097FB08950E94C9080E94BA080E949E0403
:1009AA000E94BF0819F40E94B50809C0E6F70E9420
:1009BA00B508A0E0B0E080E89FE30E9436072496DD
:1009CA000895DED0E0E0EA83EFE3EB831A930A931B
:1009DA00EB85FC85EF3FAFEFFA0731F47AD1A0EB54
:1009EA00B0E00E9478048AC0EF3FAFE7FA0731F41B
:1009FA0070D1A1EBB0E00E94780480C0AC85AA2334
:100A0A0052F4E985FA856B857C850E94970666D142
:100A1A006AD1EDE2EC93A885A73010F0E6E0E8870A
:100A2A001885E12F1150E03021F064D1E2D067D16E
:100A3A00F8CF6AD10E943D0751D110E0E0E0F0E022
:100A4A0060E87FE35CD160D10E94200868F052D14F
:100A5A00C2D055D11F5F173230F03BD1A5EBB0E0C1
:100A6A000E9478044BC0EFCF103021F43CD1E0E370
:100A7A00EC9320C0E12F1150E030E1F03BD1B9D026
:100A8A00B1D0DF01CB010E94CF0439D13DD10E9400
:100A9A00DB070E94CA060E2F26D1B9D0F0E02AD170
:100AAA000E9452080E9403070E948D0736D1B4D0D3
:100ABA0015D1E0CFE885E030E9F015D1EEE2EC930C
:100ACA00E885E150E887EF5FA9F027D184D006D105
:100ADA00E985FA856B857C850E94CA060E2F03D1AB
:100AEA0096D0F0E01AD10E9452080E94030794D0CF
:100AFA00F5D0E6CFAE81BF81E0E0EC9319810881A1
:100B0A002D960895E6B5AE2FE7B5FE2FE0E0EA2B65
:100B1A000895E88BF98B6A8B7B8B0895EC87FD87A8
:100B2A006E877F870895EC85FD856E857F8508959C
:100B3A00A889B9898A899B890895662777270E9497
:100B4A00C4080895EC83FD836E837F830895E0E0F3
:100B5A00F0EC68EA79E40E94DB070E94C40884E0AA
:100B6A000E94530426960895AA85BB858C859D8587
:100B7A000895EE81FF81688579850E94C4080895E9
:100B8A00BA93AA932497E0E0E883E9830895AC81B5
:100B9A00BD818E819F81E0E0F0E060E271E40E9415
:100BAA008D07D0CFEC81FD816E817F81AC85BD85BB
:100BBA008E859F850E9420080895AC85BD858E8507
:100BCA009F850895EDECFCEC6CEC7DE30E948D07AB
:100BDA00A5DF3F5F0895E0E0F0E060E271E40E9483
:100BEA008D070895A0E0B0E080E09FE30E943D07F2
:100BFA000895EDECFCEC6CEC7DE30E948D07089502
:100C0A00A885B9851196A887B98711970895E02F05
:100C1A00E05DEC93E02F08950E94CE080E9436070B
:100C2A000895E885F9853196E887F98708952A9322
:100C3A00AF81B885E985FA8509950895FE01E65AD6
:100C4A00FF4F0190F081E02D08953497DE01A65AF6
:100C5A00BF4FED93FC930895AF81B885E985FA8576
:100C6A0009950895DE01A65ABF4F0D90BC91A02D9B
:100C7A000895EA87FB876C877D870895DFDFE5CFD4
:100C8A00EA85FB856C857D850895EE87FF87AE85AD
:100C9A00BF850E9485041E2F0895E4DF14960E94E2
:100CAA00AB0808950B7FED89EA93DE01A95ABF4F7D
:100CBA000D90BC91A02DFE01E75AFF4F0190F081E3
:100CCA00E02D099550300895E889F9896A897B8968
:100CDA004BCFEE81FF81FA93EA930895E987FA8769
:100CEA006B877C870895AE81BF811196AE83BF83DF
:100CFA0011970895AA81BB818C819D810895EA8309
:100D0A00FB836C837D830895EA81FB816C817D81FD
:100D1A00A985BA858B859C850895A985BA858B8511
:100D2A009C85089530976040704009F07058089586
:100D3A00552342F4503811F4E0FF04C03196691F7C
:100D4A00791F6BF050E8572711F45F93CFC05F3FCC
:100D5A0031F0660F000C57956795752F08955F93CC
:100D6A0000200AF0CFC0C8C050E8192E1522880FFB
:100D7A00991F9527550F879550E8072E0522660F6C
:100D8A00771F7527550F67950895689401C0E894F1
:100D9A005F93F2DF703818F07F3F08F4A7C056E17E
:100DAA00571BAAF4519558300EF4593030F0EFEF32
:100DBA00FFEF6FEF7FE777F91AC077275523B9F06E
:100DCA00EE0FFF1F661F771F5A95D1F710C07727BE
:100DDA00583028F0EF2FF62F672F5850F9CF5523A8
:100DEA0031F076956795F795E7955A95D1F70020F2
:100DFA000AF445D15F910895689401C0E894309748
:100E0A0060407040B1F0002426F0772312F4009479
:100E1A0036D1172E7EE1112032F07A95EE0FFF1FA0
:100E2A00661F111CF9CFEF2FF62F612D5F938ADF12
:100E3A005F9108954F93AF01FD01DA01AB01BC0147
:100E4A00CA01402D012C142E4F910895EA0FFB1F61
:100E5A00681F0895E095F0956095EF5FFF4F6F4F1B
:100E6A0008955F9381DF903871F150E8152604C028
:100E7A005F937ADF903839F1703821F1572F591B77
:100E8A002BF112F4D7DFFACF583118F0AA27BB2773
:100E9A008827583028F0AB2FB82F88275850F9CF19
:100EAA00552329F08695B795A7955A95D9F7502DC8
:100EBA00512572F0CBDF38F46795F795E79573956E
:100ECA0013F420C0B7DF3EDF5F910895D8F7FBCF58
:100EDA00EA1BFB0B680B51F010F40094BBDF66238E
:100EEA0092F3EE0FFF1F661F7A95CBF7EE27FF27C7
:100EFA00662777275F910895EFEFFFEF6FE77FEFA0
:100F0A005F910895EFEFFFEF6FE77FE75F91089535
:100F1A005F932ADF703851F3903841F30124089423
:100F2A00791F23F41CF300203AF3ECCF0F921F939E
:100F3A002F933F934F93112722279927689FA00148
:100F4A008F9F302D410D591F6B9F300D411D591F29
:100F5A008E9F27D0BF9F25D06A9F23D0BE9F1DD0CA
:100F6A00AF9F1BD0AE9F110D291F391F491F591F53
:100F7A00E32FF42F652F522F4F913F912F911F91FD
:100F8A000F9066232AF0550FEE1FFF1F661F02C03F
:100F9A0073954BF2CDDE5F910895100D211D391F17
:100FAA0002C0200D311D491F591F08955F93DCDED1
:100FBA00703821F411200AF49FCFA4CF903809F495
:100FCA0095CF01240894970B1BF4D4F30020F3CF98
:100FDA00792F1F932F933F934F9311241127222781
:100FEA0033274427552790E2AE17BF0786074107E4
:100FFA0030F0AE1BBF0B860B410B089401C08894DE
:10100A00551F221F331F111CAA1FBB1F881F441FF5
:10101A009A9551F7F901612D4F913F912F911F91A7
:10102A00662332F0550FEE1FFF1F661F7A9543F2B3
:10103A007FDE5F91089599239AF0772342F09717FC
:10104A0048F029F4AE17BF07860720F031F09894CC
:10105A008894089598940894089518948894089503
:10106A007723C2F7971798F3A9F7EA17FB076807D8
:10107A0088F399F3ECCF0024AF0DB01D0895F095D5
:10108A0060957095E195FF4F6F4F7F4F0895FE2F42
:10109A00FF0FFF0B6F2F7F2F08956F2F660F660BC1
:1010AA00762F0895002498E0AA0F001C0E1A10F457
:1010BA000E0E01C0A1609A95B9F7EA2FA02D0895E6
:1010CA0039D0F0DF0EF4E19508953F934F935F9383
:1010DA00002411244427552730E2AA0FBB1F881F7A
:1010EA00991F001C111C441F551F0E1A1F0A460B7C
:1010FA00570B28F40E0E1F1E461F571F01C0A16072
:10110A003A9559F7FD01BC01D001CA015F914F918F
:10111A003F910895E894A7FF02C0A1956894E7FD5E
:10112A00E195C0DFEA2F0EF4E1950895CEDFFD01C7
:10113A00BC010895E894E7FF02C0E1956894A7FF0F
:10114A0004C0A19500F8039400FA0895ED91FC916A
:10115A0011970895ED91FD916D917C9113970895E2
:10116A00E881F9816A817B810895A881B9818A81A0
:10117A009B810895E883F9836A837B8308957A9330
:10118A006A93FA93EA9308959A938A93BA93AA93DD
:10119A000895182E862F612D192E972F712D1B2E2B
:1011AA00BF2FF12D1A2EAE2FE12D089530976040F2
:1011BA00704008955A934A933A932A931A930A933A
:1011CA0008955D814C813B812A81198108810895A6
:00000001FF
