:020000000C945E
:1000020044000C9470000C9400000C9400000C94BA
:1000120000000C9400000C9400000C9400000C945E
:1000220000000C9400000C9400000C9400000C944E
:1000320000000C9400000C9400000C9400000C943E
:1000420000000C9400000C9400000C9400000C942E
:10005200000025312E3266205600566F6C7461679F
:10006200653A20002D4E414E000080C001002D4E09
:10007200414E00494E460000020060026C00010041
:1000820064026E000000F894EE27ECBBF1E0F5BFCD
:10009200E5BF8DE0A2E0BB27ED938A95E9F780E00A
:1000A20098E0A0E6ED930197E9F7EAE7F0E08591A1
:1000B2009591009761F0A591B59105901590BF01BA
:1000C200F00105900D920197E1F7FB01F0CFEFE50A
:1000D200EDBFE8E0EEBFC0E6D2E00C947F001895D9
:1000E200AA93E881E7B985E28A95F1F7369A349BBB
:1000F200FECF349AE4B1F5B10C94DE046497E0E0EB
:10010200E88BE98BEA8BEB8B00E010E0EABBEBBB00
:10011200EFEFE7BBE8BBE0E0E4BBE5BBE1BBE4E05B
:10012200E2BBEBB7E064EBBFE2E0E5BFE0E0E4BFD7
:10013200E0E4EABFE0E0E7B9E6E8E6B9E0E0E0BF24
:10014200A0E10E94B204789482993FC0ACE2B1E08F
:100152000E94F106A0E0C4DF8F01662777270E9484
:100162006707A0E0B0E080EA90E40E94F107DF01B7
:10017200CB01E0E0F0E060E874E40E943F080E94F6
:10018200EF05FE01FA93EA93E4E5F0E0FA93EA93CD
:10019200EC89FD896E897F890E94280984E00E948A
:1001A2000E0428960E946F04E0E0EA93A0E00E9409
:1001B2006204ACE5B0E00E949F04E0E0EA93A1E0B3
:1001C2000E946204DE010E949004BECFFFCFBA9368
:1001D200AA931A930A93AA81BB8112960E940F09CD
:1001E200309729F1AA81BB8114960E940F098F01D1
:1001F200309761F00230E0E01E0780F0F80131979D
:100202008F01AA81BB811496ED93FC93AA81BB81D5
:1002120012960E94F4053197AC81A083AA81BB811A
:100222000E940F09FF2312F00E94F40506C0AA8162
:10023200BB81EFEFFFEFED93FC93198108812596C7
:1002420008950E94FA05E0E8EA83EFE3EB830E9457
:100252004509EE85FF85EF3FAFEFFA0749F4E885E0
:10026200F985FA93EA93A6E6B0E00E94E004B7C0EB
:10027200EF3FAFE7FA0749F4E885F985FA93EA9385
:10028200A7E6B0E00E94E004AAC0AB85A73010F058
:10029200E6E0EB871B85E12F1150E03019F00E9458
:1002A2000106F9CFEC85FD856E857F850E943F09A9
:1002B20021F430E00E9401062DC03B850E94100609
:1002C20009F008F40BC00E9401060E94100628F0F3
:1002D2000E941B060E942006F8CF0DC00E94100645
:1002E20040F40E941B060E942C060E9433063150E5
:1002F200F5CF0E940106EC85FD856E857F850E9403
:1003020038060E9433060E94100620F00E941B0647
:100312000E94200610E0EB85E117A8F1AC81BD81B7
:100322008E819F810E943F060E943806DF01CB0129
:100332000E943705EC83FD836E837F830E941B0638
:100342000E943F080E942E070E2F0E9446060E941E
:100352004D06FF27662777270E946707AC81BD817C
:100362008E819F810E94F1070E941B060E94520605
:100372000E943306E12F1F5FE03069F60E944606B5
:10038200EEE2EC93C8CF0E9457063197AA85A0836C
:1003920030302CF43195A885B985EDE203C0A885EB
:1003A200B985EBE2EC930E9457060E9457063197FB
:1003B200BF01A32FEAE00E94C908E05DDB01EC93D4
:1003C2000E9457063197BF01A32FEAE00E94F3086B
:1003D200E05DDB01EC93A885B985E0E0EC930E9437
:1003E2004C0960960895BA93AA93EF9761970E9479
:1003F200430910E0FE01E85AFF4F0190F081E02D21
:10040200E887F987FE01EA5AFF4F0190F081E02D5B
:10041200EE83FF83AE81BF81E0E0F0E0ED93FC93D9
:10042200DE01A45ABF4F0E94F4053197E4912E2FAA
:10043200E03009F4E9C1E12FE03039F4253211F45A
:1004420011E002C00E945D06DEC1E130C1F4253236
:1004520019F40E945D06D6C112E0E0E0ED8B00E0E7
:100462002D3211F401E0CFC12B3219F4EBE2ED8B06
:10047200CAC1203219F4E0E2ED8BC5C102C0E230FC
:1004820039F450E013E0203311F40068BCC102C01B
:10049200E33091F4203310F02A3308F007C0AAE0C9
:1004A2005A9F502DE22FE0535E0FADC140E02E3235
:1004B20011F414E0A8C10FC0E43099F4203310F015
:1004C2002A3308F008C00062AAE04A9F402DE22FBA
:1004D200E0534E0F98C12C3619F4026015E093C117
:1004E20003C0E53009F08FC1E22FE33659F40E94D0
:1004F20064060E946B060E946406A481AA930E946D
:10050200720680C1E53411F0E53609F403C0E6361F
:1005120009F048C0FE017696EE87FF870E947806B2
:100522000E9413090E947F060E948406AD85AA23B9
:1005320032F0AD89AB3259F0A03281F017C00E947F
:1005420086060E94FB060E947F06EDE2ED8B07FF06
:1005520005C0ED89EA930E94720608C0EE85FF8508
:100562003196EE87FF873197AD89A08305FF46E07C
:10057200263651F40E9486060E9428094A93AB89C6
:10058200BC890E944E0509C00E9486060E94280965
:100592004A932A93AC89BD8954DEFE0176960E9465
:1005A2008B061EC0E33739F40E9484060E9493062C
:1005B2000E948B060EC0E037C1F40E9484060E949E
:1005C2009306EE87FF87AE85BF850E94F9041E2F32
:1005D20008600F77403011F0411708F001C0142F66
:1005E20040E0E0E0EC8B30E06DC0E43611F0E9363B
:1005F20011F4046002C0E537A1F4EAE0EC8B01FFDC
:1006020008C0E0E0FAEC6AE97BE30E94EF051AE039
:1006120022C0E0E1F7E260E070E00E94EF0515E041
:100622001AC0E83511F4086003C0E83709F0EAC0DF
:10063200E0E1EC8B01FF08C0E0E0F0E060E070E197
:100642000E94EF0518E007C0E0E0F0E160E070E032
:100652000E94EF0514E0403011F00F7701C041E035
:1006620001FF08C00E9484060E94780614960E9428
:1006720013090FC002FF07C00E9484060E9493065E
:100682000E94B60806C00E9484060E94930666274E
:100692007727EA87FB876C877D8702FF12C0AD85CB
:1006A200AA2342F40E9486060E94A8080E947F069E
:1006B200EDE2ED8BED89E03019F01F5F4F5F01C075
:1006C2000B7F342F00FD14C0151710F4351708F0F6
:1006D2000FC007FF08C002FF04C00B7F2D89115015
:1006E20001C020E301C020E20E945D065150ECCF20
:1006F200141790F4006102FF06C00E94980609F0E8
:10070200515011504150E0E3EA930E94720650307A
:1007120009F051504150ECCF312FEC89E030B9F45F
:100722003030A1F003FF06C0EE85FF852591EE87EC
:10073200FF8705C0AE85BF852D91AE87BF870E941A
:100742005D06503009F051503150EACF51C00E943D
:10075200AA060E94CE082E2F2A3030F003FF02C0D4
:10076200295C01C0295A01C0205D04FD21C021334A
:1007720060F4A889B9898A899B89A130E0E0BE0723
:10078200E0E08E07E0E09E0709F40BC0431740F457
:10079200531710F000FF01C010C020E207FF08C08D
:1007A20020E3006102FF04C00E94980609F0515044
:1007B2000E945D06503009F0515031500E94AA0645
:1007C2000E94FF080E947F06EC89A889B9898A895C
:1007D2009B89FF27662777270E94CE080E94EF0594
:1007E200E889F9896A897B890E943F0909F0AFCFBC
:1007F20000FF08C0503031F05150E0E2EA930E940D
:100802007206F8CF10E00CCEAE81BF810E940F09B4
:100812000E944A09EF966F960895FF92F82E269746
:100822000E9445090E94B306309719F4EFEFFFEFDB
:1008320023C0DE0116960E94A4088D010E94B30611
:10084200EE83FF83E0E0E887E987DE011A960E94E3
:10085200A4080E940F09FA93EA931A930A93E8EE06
:10086200F0E0FA93EA93DE011A96BDDD9F01AE81B4
:10087200BF81E0E0EC93F9010E944C092A96FF90B7
:100882000895AA93E8B3EF70AE2FE881E07FEA2BD8
:10089200E8BB82E18A95F1F7C19A82E18A95F1F784
:1008A200C19882E18A95F1F788C0AA93A881E9DF0D
:1008B200E881E295E883A881E4DF88EB8A95F1F785
:1008C2007CC0AA93E881F0E0E05AFD4FE081A98163
:1008D200AE0FEBDF5980488022960895A2E00E9475
:1008E200BA06ACE0E2DFA1E00E94BA06E0E04E2EDA
:1008F2005E2E0895AA93A881AA3011F0571448F0E9
:10090200E0E0EA934394A42DDCDFA881AA3009F445
:1009120054C05394C09AA881C8DFC0984EC0BA93FD
:10092200AA931A93A981BA81ED91A983BA831E2F42
:10093200E03019F0A12FDEDFF5CF10C0BA93AA93F1
:100942001A93E981FA813196E983FA833197E49126
:100952001E2FE03019F0A12FCDDFF3CF188123969F
:100962000895AA93E7B3E06FE7BBB99AB89ABA9A27
:10097200C198C098C2987880E881E058E0936202FA
:10098200E881E054E0936302A4E1B0E00E94F10642
:100992000E94C0060E94C0060E94C006A0E271DF4B
:1009A20084E191E00197F1F7A8E27FDFA4E07DDF27
:1009B200A5E87BDFA6E079DF91DF21960895BA935F
:1009C200AA93E991F991A991B991CD0105900D925E
:1009D2000020E1F7FC010895BA93AA93A991B99175
:1009E200EE27FF276D91662311F03196FBCF089514
:1009F200BA93AA93AA27BB27E991F99105900020FF
:100A020011F01196FBCFFD0108950E942D097B8103
:100A12006A81F981E88177FB770F67FD7160972F13
:100A22009E5781F078F0983190F4AA27BB27882747
:100A320008948795B795A7959A95D1F7EA23FB2352
:100A4200682305C0E8947727EE27FF2766276F778C
:100A5200769508F4606877F9A991B991899199918D
:100A6200EA17FB076807790797FB08950E942D098B
:100A72000E941E090E9406050E94230919F40E9481
:100A8200190909C0E6F70E941909A0E0B0E080E860
:100A92009FE30E949A0724960895ABD0E0E0EA8390
:100AA200EFE3EB831A930A93EB85FC85EF3FAFEFFD
:100AB200FA0731F46CD1A0E7B0E00E94E0048AC0EA
:100AC200EF3FAFE7FA0731F462D1A1E7B0E00E944D
:100AD200E00480C0AC85AA2352F4E985FA856B85CF
:100AE2007C850E94FB0658D15CD1EDE2EC93A8858F
:100AF200A73010F0E6E0E8871885E12F1150E030CA
:100B020021F056D1BBD059D1F8CF5CD10E94A107B8
:100B120043D110E0E0E0F0E060E87FE34ED152D153
:100B22000E94840868F044D196D047D11F5F1732E3
:100B320030F02DD1A5E7B0E00E94E0044BC0EFCF2A
:100B4200103021F42ED1E0E3EC9320C0E12F1150BC
:100B5200E030E1F02DD192D08AD0DF01CB010E94AA
:100B620037052BD12FD10E943F080E942E070E2F4E
:100B720018D192D0F0E01CD10E94B6080E946707FB
:100B82000E94F10728D18DD007D1E0CFE885E0306F
:100B9200E9F007D1EEE2EC93E885E150E887EF5FF8
:100BA200A9F019D158D0F8D0E985FA856B857C85F2
:100BB2000E942E070E2FF5D06FD0F0E00CD10E94CC
:100BC200B6080E9467076DD0E7D0E6CFAE81BF813D
:100BD200E0E0EC93198108812D960895E88BF98B5A
:100BE2006A8B7B8B0895ED91FD913196FE93EE9386
:100BF2000895BA93AA932497E0E0E883E9830895DD
:100C0200AC81BD818E819F81E0E0F0E060E271E421
:100C12000E94F107EC83FD836E837F830895EC814C
:100C2200FD816E817F81AC85BD858E859F850E9409
:100C320084080895AC85BD858E859F850895EDEC69
:100C4200FCEC6CEC7DE30E94F107EC87FD876E877C
:100C52007F873F5F0895E0E0F0E060E271E40E9488
:100C6200F1070895EC87FD876E877F870895A0E0DE
:100C7200B0E080E09FE30E94A1070895EDECFCEC58
:100C82006CEC7DE30E94F1070895A885B985119661
:100C9200A887B98711970895E02FE05DEC93E02FC4
:100CA20008950E9432090E949A070895E885F985FD
:100CB2003196E887F98708952A93AF81B885E98547
:100CC200FA8509950895FE01E65AFF4F0190F081D9
:100CD200E02D08953497DE01A65ABF4FED93FC93A1
:100CE2000895AF81B885E985FA8509950895DE01F1
:100CF200A65ABF4F0D90BC91A02D0895EA87FB879D
:100D02006C877D870895DFDFE5CFEA85FB856C85FB
:100D12007D850895EE87FF87AE85BF850E94ED042D
:100D22001E2F0895E4DF14960E940F0908950B7F89
:100D3200ED89EA93DE01A95ABF4F0D90BC91A02D17
:100D4200FE01E75AFF4F0190F081E02D09955030E6
:100D52000895E889F9896A897B89AA85BB858C858A
:100D62009D850895DE011C960E94A4080E940F0929
:100D720008950E945604A3E0B0E00C94F106A0E3AB
:100D82000E94420484E191E00197F1F70895EE8117
:100D9200FF81FA93EA930895E987FA876B877C8744
:100DA2000895AE81BF811196AE83BF8311970895D6
:100DB200AA81BB818C819D810895EA83FB836C8328
:100DC2007D830895EA81FB816C817D81A985BA8545
:100DD2008B859C850895A985BA858B859C85089508
:100DE200109639F0A8958DEC9AE00197F1F71197DA
:100DF200C9F7089530976040704009F0705808951F
:100E0200552342F4503811F4E0FF04C03196691FB3
:100E1200791F6BF050E8572711F45F93CFC05F3F03
:100E220031F0660F000C57956795752F08955F9303
:100E320000200AF0CFC0C8C050E8192E1522880F32
:100E4200991F9527550F879550E8072E0522660FA3
:100E5200771F7527550F67950895689401C0E89428
:100E62005F93F2DF703818F07F3F08F4A7C056E1B5
:100E7200571BAAF4519558300EF4593030F0EFEF69
:100E8200FFEF6FEF7FE777F91AC077275523B9F0A5
:100E9200EE0FFF1F661F771F5A95D1F710C07727F5
:100EA200583028F0EF2FF62F672F5850F9CF5523DF
:100EB20031F076956795F795E7955A95D1F7002029
:100EC2000AF445D15F910895689401C0E89430977F
:100ED20060407040B1F0002426F0772312F40094B1
:100EE20036D1172E7EE1112032F07A95EE0FFF1FD8
:100EF200661F111CF9CFEF2FF62F612D5F938ADF4A
:100F02005F9108954F93AF01FD01DA01AB01BC017E
:100F1200CA01402D012C142E4F910895EA0FFB1F98
:100F2200681F0895E095F0956095EF5FFF4F6F4F52
:100F320008955F9381DF903871F150E8152604C05F
:100F42005F937ADF903839F1703821F1572F591BAE
:100F52002BF112F4D7DFFACF583118F0AA27BB27AA
:100F62008827583028F0AB2FB82F88275850F9CF50
:100F7200552329F08695B795A7955A95D9F7502DFF
:100F8200512572F0CBDF38F46795F795E7957395A5
:100F920013F420C0B7DF3EDF5F910895D8F7FBCF8F
:100FA200EA1BFB0B680B51F010F40094BBDF6623C5
:100FB20092F3EE0FFF1F661F7A95CBF7EE27FF27FE
:100FC200662777275F910895EFEFFFEF6FE77FEFD7
:100FD2005F910895EFEFFFEF6FE77FE75F9108956D
:100FE2005F932ADF703851F3903841F3012408945B
:100FF200791F23F41CF300203AF3ECCF0F921F93D6
:101002002F933F934F93112722279927689FA0017F
:101012008F9F302D410D591F6B9F300D411D591F60
:101022008E9F27D0BF9F25D06A9F23D0BE9F1DD001
:10103200AF9F1BD0AE9F110D291F391F491F591F8A
:10104200E32FF42F652F522F4F913F912F911F9134
:101052000F9066232AF0550FEE1FFF1F661F02C076
:1010620073954BF2CDDE5F910895100D211D391F4E
:1010720002C0200D311D491F591F08955F93DCDE08
:10108200703821F411200AF49FCFA4CF903809F4CC
:1010920095CF01240894970B1BF4D4F30020F3CFCF
:1010A200792F1F932F933F934F93112411272227B8
:1010B20033274427552790E2AE17BF07860741071B
:1010C20030F0AE1BBF0B860B410B089401C0889415
:1010D200551F221F331F111CAA1FBB1F881F441F2D
:1010E2009A9551F7F901612D4F913F912F911F91DF
:1010F200662332F0550FEE1FFF1F661F7A9543F2EB
:101102007FDE5F91089599239AF0772342F0971733
:1011120048F029F4AE17BF07860720F031F0989403
:10112200889408959894089408951894889408953A
:101132007723C2F7971798F3A9F7EA17FB0768070F
:1011420088F399F3ECCF0024AF0DB01D0895F0950C
:1011520060957095E195FF4F6F4F7F4F0895FE2F79
:10116200FF0FFF0B6F2F7F2F08956F2F660F660BF8
:10117200762F0895002498E0AA0F001C0E1A10F48E
:101182000E0E01C0A1609A95B9F7EA2FA02D08951D
:1011920039D0F0DF0EF4E19508953F934F935F93BA
:1011A200002411244427552730E2AA0FBB1F881FB1
:1011B200991F001C111C441F551F0E1A1F0A460BB3
:1011C200570B28F40E0E1F1E461F571F01C0A160A9
:1011D2003A9559F7FD01BC01D001CA015F914F91C7
:1011E2003F910895E894A7FF02C0A1956894E7FD96
:1011F200E195C0DFEA2F0EF4E1950895CEDFFD01FF
:10120200BC010895E894E7FF02C0E1956894A7FF46
:1012120004C0A19500F8039400FA0895ED91FC91A1
:1012220011970895ED91FD916D917C911397089519
:10123200E881F9816A817B810895A881B9818A81D7
:101242009B810895E883F9836A837B8308957A9367
:101252006A93FA93EA9308959A938A93BA93AA9314
:101262000895182E862F612D192E972F712D1B2E62
:10127200BF2FF12D1A2EAE2FE12D08953097604029
:10128200704008955A934A933A932A931A930A9371
:1012920008955D814C813B812A81198108810895DD
:00000001FF
