:0A0000000C942A000C9400000C94EC
:10000A0000000C9400000C9400000C9400000C9466
:10001A0000000C9400000C9400000C9400000C9456
:10002A0000000C9400000C9400000C9400000C9446
:10003A0000000C9400000C9400000C9400000C9436
:10004A0000000C9400000C940000F894EE27ECBB1E
:10005A00F1E0F5BFE5BF8DE0A2E0BB27ED938A95FD
:10006A00E9F780E098E0A0E6ED930197E9F7EFE57C
:10007A00EDBFE8E0EEBFC0E6D2E00C944D00AA93D3
:10008A00E881EFB9EEB1E070E9F7EFB12196089592
:10009A00E0E0EABBEFEFEBBBE0EBE7BBE0E0E8BB9D
:1000AA00E4BBE5BBEFEFE1BBE2BBE1E7EDB9E0E0C2
:1000BA00EEB9E9B3AE2FE3DFE095E2BBFACFFFCFAB
:00000001FF
