:100000000C942A000C9400000C9400000C94000046
:100010000C9400000C9400000C9400000C94000060
:100020000C9400000C9400000C9400000C9444000C
:100030000C9400000C9400000C9400000C94000040
:100040000C9400000C9400000C9400000C94000030
:100050000C940000F894EE27ECBBF1E0F5BFE5BF8F
:100060008DE0A2E0BB27ED938A95E9F780E098E068
:10007000A0E6ED930197E9F7EFE5EDBFE8E0EEBF0D
:10008000C0E6D2E00C945800AA93EA93EFB7EA9343
:10009000E4E9E2BFA0E0C099A1E0E1E0EA2711F4C1
:1000A000C09801C0C09AE991EFBFE991A991189554
:1000B000E1E0EABBE0E0EBBBE1E0E7BBE0E0E8BBAE
:1000C000E4BBE5BBE0EAE1BBE0E0E2BBE5E0E3BFC7
:1000D000E4E9E2BFE0E0ECBFE0E4EFBDECE0EEBD60
:1000E000E0E0EDBDECBDE7BDE6BDE8EAEBBDEFEB62
:1000F000EABDE0E0E9BDE8BDE2BDECE6E5BDE0E07B
:10010000E4BDEFEBE3BDE1E0E9BF7894FFCFFFCFC3
:00000001FF
