:0A0000000C942F000C9400000C94E7
:10000A0000000C9400000C9400000C9400000C9466
:10001A0000000C9400000C9400000C9400000C9456
:10002A0000000C945B000C9400000C9400000C94EB
:10003A0000000C9400000C9400000C9400000C9436
:10004A0077000C9400000C940000000001000500E9
:10005A0054000000F894EE27ECBBF1E0F5BFE5BFD1
:10006A008DE0A2E0BB27ED938A95E9F780E098E05E
:10007A00A0E6ED930197E9F7E6E5F0E08591959121
:10008A00009761F0A591B59105901590BF01F00117
:10009A0005900D920197E1F7FB01F0CFEFE5EDBF77
:1000AA00E8E0EEBFC0E6D2E00C948000AA93EA939F
:1000BA00FA93EFB7EA93E8E2E2BF5394E52DF0E052
:1000CA00E336A0E0FA0711F4C09806C0E436A0E0CF
:1000DA00FA0711F4C09A5524E991EFBFF991E99111
:1000EA00A9911895EA93E0E0E8B9E5E0E3BFE8E210
:1000FA00E2BFE9911895E0E0EABBEBBBE1E0E7BBC0
:10010A00E8BBE0E0E4BBE5BBE1BBE2BBE3BFE1E0A7
:10011A00E9BFEAE0E8B9E0E0E0BF7894FFCFFFCFBB
:00000001FF
