:0C0000000C9440000C9400000C940000D4
:10000C000C9400000C9400000C9400000C94000064
:10001C000C9400000C9400000C9400000C94000054
:10002C000C9400000C9400000C9400000C94000044
:10003C000C9400000C9400000C9400000C94000034
:10004C000C9400000C9400000D0A2057656C636F33
:10005C006D6520746F206D6963726F20636F6E74B1
:10006C00726F6C6C65722032200D0A0024006002E5
:10007C0054000000F894EE27ECBBF1E0F5BFE5BFAF
:10008C008DE0A2E0BB27ED938A95E9F780E098E03C
:10009C00A0E6ED930197E9F7E8E7F0E085919591FB
:1000AC00009761F0A591B59105901590BF01F001F5
:1000BC0005900D920197E1F7FB01F0CFEFE5EDBF55
:1000CC00E8E0EEBFC0E6D2E00C94A7000E94490124
:1000DC00EAB1E861EAB9E0B5E668E0BD4AD0E150C2
:1000EC00E9B947D0E150F04060407040DF01CB01EE
:1000FC00E8E00E94D600E0BD249608955F9BFECFF9
:10010C00ECB10895AA935D9BFECFE881ECB92196E2
:10011C000895BA93AA931A9310E0A981BA81EE2795
:10012C00A10FBE1FEC91E03049F0A981BA81EE27F6
:10013C00A10FBE1FAC91E6DF1F5FEFCF1881239696
:10014C00089510E0E0E0EABBEBBBE7BBE8BBE4BB27
:10015C00E5BBE1BBE2BBA0E8B5E280E090E0B6DF36
:10016C00A0E6B2E0D6DFCADF1E2FA12FCBDFFBCF7C
:10017C00FFCF0E944401A0E1B0E080E090E00E943B
:10018C000201A0E0B0EC88EA90E00E942C010895F6
:10019C00F09560957095E195FF4F6F4F7F4F0895E7
:1001AC00EE230E2EFD01BC0131F075956795F79588
:1001BC00E7950A94D1F708957A9F702D6B9F700D77
:1001CC00F89F700DE99F700D6A9F602D710DFB9F5C
:1001DC00600D711DE89F600D711D8827FA9FF02D31
:1001EC00610D781FEB9FF00D611D781FEA9FE02DCC
:1001FC00F10D681F781F08952ED0DEDF0EF4C8DFD6
:10020C0008953F934F935F9300241124442755275F
:10021C0030E2AA0FBB1F881F991F001C111C441F22
:10022C00551F0E1A1F0A460B570B28F40E0E1F1ED5
:10023C00461F571F01C0A1603A9559F7FD01BC013B
:10024C00D001CA015F914F913F91089504D0D9DF3D
:10025C000EF49EDF0895E89477FF02C099DF68944E
:10026C0097FF0BC00024A095B095809590951196A2
:10027C00801D901D00F8039400FA0895E881F9811F
:10028C006A817B8108959A938A93BA93AA9308956D
:00000001FF
