:0C0000000C9440000C9400000C940000D4
:10000C000C9400000C9400000C9400000C94000064
:10001C000C9400000C9400000C9400000C94000054
:10002C000C9400000C9400000C9400000C94000044
:10003C000C9400000C9400000C9400000C94000034
:10004C000C9400000C940000566F6C746167652072
:10005C003D2025312E32660D0A002D4E414E0000FA
:10006C0001002D4E414E00494E4600000100600239
:10007C006C000000F894EE27ECBBF1E0F5BFE5BF97
:10008C008DE0A2E0BB27ED938A95E9F780E098E03C
:10009C00A0E6ED930197E9F7E8E7F0E085919591FB
:1000AC00009761F0A591B59105901590BF01F001F5
:1000BC0005900D920197E1F7FB01F0CFEFE5EDBF55
:1000CC00E8E0EEBFC0E6D2E00C947900AA93E88198
:1000DC00E7B985E28A95F1F7369A349BFECF349ACC
:1000EC00E4B1F5B150C00E94FF04E0E0EA83EB8379
:1000FC0000E010E0EABBEBBBE7BBE8BBE4BBE5BB55
:10010C00E1BBE4E0E2BBE0E0EBB9E8E0EAB9E6E849
:10011C00E0BDE0E0E0BDE7E4E9B9E0E0E7B9E6E83E
:10012C00E6B9E0E0E0BF829927C0ACE2B1E00E9402
:10013C00E605A0E0CBDF8F01662777270E945C06DF
:10014C00A0E0B0E080EA90E40E94E606DF01CB017B
:10015C00E0E0F0E060E874E40E9434070E941808C4
:10016C00E4E5F0E0FA93EA930E9404050E941D086E
:10017C0084E00E94C9032696D6CFFFCFAA935D9B3D
:10018C00FECFE881ECB921960895BA93AA93AA817F
:10019C00F5DFA881B981ED91FD913196FE93EE9337
:1001AC0023960895BA93AA930E94FF04E0E8EA8389
:1001BC00EFE3EB830E943A08EE85FF85EF3FAFEF4C
:1001CC00FA0749F4E885F985FA93EA93A6E6B0E0D4
:1001DC000E94EE03B7C0EF3FAFE7FA0749F4E8859A
:1001EC00F985FA93EA93A7E6B0E00E94EE03AAC061
:1001FC00AB85A73010F0E6E0EB871B85E12F1150A3
:10020C00E03019F00E940905F9CFEC85FD856E856B
:10021C007F850E94340821F430E00E9409052DC02E
:10022C003B850E94180509F008F40BC00E940905D3
:10023C000E94180528F00E9423050E942805F8CF7B
:10024C000DC00E94180540F40E9423050E9434053D
:10025C000E943B053150F5CF0E940905EC85FD85C8
:10026C006E857F850E9440050E943B050E94180503
:10027C0020F00E9423050E94280510E0EB85E11771
:10028C00A8F1AC81BD818E819F810E9447050E949F
:10029C004005DF01CB010E944504EC83FD836E8396
:1002AC007F830E9423050E9434070E9423060E2F91
:1002BC000E944E050E945505FF27662777270E944E
:1002CC005C06AC81BD818E819F810E94E6060E94F6
:1002DC0023050E945A050E943B05E12F1F5FE03069
:1002EC0069F60E944E05EEE2EC93C8CF0E945F05C2
:1002FC003197AA85A08330302CF43195A885B98527
:10030C00EDE203C0A885B985EBE2EC930E945F0592
:10031C000E945F053197BF01A32FEAE00E94BE0740
:10032C00E05DDB01EC930E945F053197BF01A32FC9
:10033C00EAE00E94E807E05DDB01EC93A885B98553
:10034C00E0E0EC930E94410860960895BA93AA935A
:10035C00EF9761970E94380810E0FE01E85AFF4FB2
:10036C000190F081E02DE887F987FE01EA5AFF4FF2
:10037C000190F081E02DEE83FF83AE81BF81E0E040
:10038C00F0E0ED93FC93DE01A45ABF4FED91FD918B
:10039C003196FE93EE933197E4912E2FE03009F4D1
:1003AC00E9C1E12FE03039F4253211F411E002C03B
:1003BC000E946505DEC1E130C1F4253219F40E94BA
:1003CC006505D6C112E0E0E0ED8B00E02D3211F4B2
:1003DC0001E0CFC12B3219F4EBE2ED8BCAC1203214
:1003EC0019F4E0E2ED8BC5C102C0E23039F450E003
:1003FC0013E0203311F40068BCC102C0E33091F467
:10040C00203310F02A3308F007C0AAE05A9F502D71
:10041C00E22FE0535E0FADC140E02E3211F414E038
:10042C00A8C10FC0E43099F4203310F02A3308F03F
:10043C0008C00062AAE04A9F402DE22FE0534E0F05
:10044C0098C12C3619F4026015E093C103C0E53055
:10045C0009F08FC1E22FE33659F40E946C050E941B
:10046C0073050E946C05A481AA930E947A0580C131
:10047C00E53411F0E53609F403C0E63609F048C05E
:10048C00FE017696EE87FF870E9480050E94080881
:10049C000E9487050E948C05AD85AA2332F0AD8998
:1004AC00AB3259F0A03281F017C00E948E050E9429
:1004BC00F0050E948705EDE2ED8B07FF05C0ED8985
:1004CC00EA930E947A0508C0EE85FF853196EE8787
:1004DC00FF873197AD89A08305FF46E0263651F49E
:1004EC000E948E050E941D084A93AB89BC890E940C
:1004FC005C0409C00E948E050E941D084A932A9331
:10050C00AC89BD894FDEFE0176960E9493051EC014
:10051C00E33739F40E948C050E949B050E949305D9
:10052C000EC0E037C1F40E948C050E949B05EE873B
:10053C00FF87AE85BF850E9407041E2F08600F77CA
:10054C00403011F0411708F001C0142F40E0E0E0FA
:10055C00EC8B30E06DC0E43611F0E93611F4046038
:10056C0002C0E537A1F4EAE0EC8B01FF08C0E0E043
:10057C00FAEC6AE97BE30E94A0051AE022C0E0E1F4
:10058C00F7E260E070E00E94A00515E01AC0E835C3
:10059C0011F4086003C0E83709F0EAC0E0E1EC8B25
:1005AC0001FF08C0E0E0F0E060E070E10E94A0050F
:1005BC0018E007C0E0E0F0E160E070E00E94A00508
:1005CC0014E0403011F00F7701C041E001FF08C08A
:1005DC000E948C050E94800514960E9408080FC08A
:1005EC0002FF07C00E948C050E949B050E94AB076E
:1005FC0006C00E948C050E949B0566277727EA8718
:10060C00FB876C877D8702FF12C0AD85AA2342F45D
:10061C000E948E050E949D070E948705EDE2ED8BDE
:10062C00ED89E03019F01F5F4F5F01C00B7F342F55
:10063C0000FD14C0151710F4351708F00FC007FF94
:10064C0008C002FF04C00B7F2D89115001C020E3AC
:10065C0001C020E20E9465055150ECCF141790F4B4
:10066C00006102FF06C00E94A50509F0515011500F
:10067C004150E0E3EA930E947A05503009F0515062
:10068C004150ECCF312FEC89E030B9F43030A1F08F
:10069C0003FF06C0EE85FF852591EE87FF8705C019
:1006AC00AE85BF852D91AE87BF870E946505503002
:1006BC0009F051503150EACF51C00E94B7050E9449
:1006CC00C3072E2F2A3030F003FF02C0295C01C073
:1006DC00295A01C0205D04FD21C0213360F4A88992
:1006EC00B9898A899B89A130E0E0BE07E0E08E07DA
:1006FC00E0E09E0709F40BC0431740F4531710F0C9
:10070C0000FF01C010C020E207FF08C020E3006119
:10071C0002FF04C00E94A50509F051500E94650516
:10072C00503009F0515031500E94B7050E94F40727
:10073C000E948705EC89A889B9898A899B89FF273A
:10074C00662777270E94C3070E94A005E889F989CC
:10075C006A897B890E94340809F0AFCF00FF08C07A
:10076C00503031F05150E0E2EA930E947A05F8CF14
:10077C0010E009CEAE81BF810E9404080E943F08A0
:10078C00EF966F960895FF92F82E26971A930A9378
:10079C00DE0114960E9499078D01E0E0EC83ED8355
:1007AC00EE83EF83DE0118960E9499070E940408DD
:1007BC00FA93EA931A930A93EBECF0E0FA93EA9328
:1007CC00DE011896C3DD198108812896FF900895E3
:1007DC00BA93AA93E991F991A991B991CD01059098
:1007EC000D920020E1F7FC010895BA93AA93A99108
:1007FC00B991EE27FF276D91662311F03196FBCF4F
:10080C000895BA93AA93AA27BB27E991F991059069
:10081C00002011F01196FBCFFD0108950E942208D3
:10082C007B816A81F981E88177FB770F67FD7160C5
:10083C00972F9E5781F078F0983190F4AA27BB2718
:10084C00882708948795B795A7959A95D1F7EA23A9
:10085C00FB23682305C0E8947727EE27FF2766273C
:10086C006F77769508F4606877F9A991B9918991B9
:10087C009991EA17FB076807790797FB08950E947F
:10088C0022080E9413080E9414040E94180819F4EC
:10089C000E940E0809C0E6F70E940E08A0E0B0E026
:1008AC0080E89FE30E948F0624960895BA93AA933A
:1008BC00A0D0E0E0EA83EFE3EB831A930A93EB8595
:1008CC00FC85EF3FAFEFFA0731F454D1AEE6B0E060
:1008DC000E94EE038AC0EF3FAFE7FA0731F44AD12A
:1008EC00AFE6B0E00E94EE0380C0AC85AA2352F4C0
:1008FC00E985FA856B857C850E94F00540D144D151
:10090C00EDE2EC93A885A73010F0E6E0E8871885B7
:10091C00E12F1150E03021F03ED1B3D041D1F8CFCE
:10092C0044D10E9496062BD110E0E0E0F0E060E8A4
:10093C007FE336D13AD10E94790768F02CD18ED062
:10094C002FD11F5F173230F015D1A3E7B0E00E9412
:10095C00EE034BC0EFCF103021F416D1E0E3EC9353
:10096C0020C0E12F1150E030E1F015D18AD082D0B7
:10097C00DF01CB010E94450413D117D10E9434072B
:10098C000E9423060E2F00D18AD0F0E004D10E94E1
:10099C00AB070E945C060E94E6060DD185D0EFD015
:1009AC00E0CFE885E030E9F0EFD0EEE2EC93E885BB
:1009BC00E150E887EF5FA9F0FED050D0E0D0E98598
:1009CC00FA856B857C850E9423060E2FDDD067D0BF
:1009DC00F0E0F1D00E94AB070E945C0665D0CFD04E
:1009EC00E6CFAE81BF81E0E0EC93198108812D96B2
:1009FC0008952497E0E0E883E9830895EA81FB8178
:100A0C006C817D810895AC81BD818E819F81E0E0F8
:100A1C00F0E060E271E40E94E606EC83FD836E83F5
:100A2C007F830895EC81FD816E817F81AC85BD85CE
:100A3C008E859F850E9479070895AC85BD858E852E
:100A4C009F850895EDECFCEC6CEC7DE30E94E606D2
:100A5C00EC87FD876E877F873F5F0895E0E0F0E0CD
:100A6C0060E271E40E94E6060895EC87FD876E87CC
:100A7C007F870895A0E0B0E080E09FE30E94960697
:100A8C000895EDECFCEC6CEC7DE30E94E606089519
:100A9C00A885B9851196A887B98711970895E02F75
:100AAC00E05DEC93E02F08950E9427080E948F06CA
:100ABC000895E885F9853196E887F98708952A9392
:100ACC00AF81B885E985FA8509950895FE01E65A46
:100ADC00FF4F0190F081E02D08953497DE01A65A66
:100AEC00BF4FED93FC930895AF81B885E985FA85E6
:100AFC0009950895DE01A65ABF4F0D90BC91A02D0B
:100B0C000895EA87FB876C877D870895DFDFE5CF43
:100B1C00EA85FB856C857D850895EE87FF87AE851C
:100B2C00BF850E94FB031E2F0895E4DF14960E94DC
:100B3C0004080895E88BF98B6A8B7B8B08950B7FE7
:100B4C00ED89EA93DE01A95ABF4F0D90BC91A02DFF
:100B5C00FE01E75AFF4F0190F081E02D09955030CE
:100B6C000895E889F9896A897B89AA85BB858C8572
:100B7C009D850895EE81FF81FA93EA930895E987A4
:100B8C00FA876B877C870895AE81BF811196AE83FF
:100B9C00BF8311970895AA81BB818C819D81089593
:100BAC00EA83FB836C837D83089528DFA985BA854E
:100BBC008B859C850895A985BA858B859C85089520
:100BCC00109639F0A8958DEC9AE00197F1F71197F2
:100BDC00C9F7089530976040704009F07058089537
:100BEC00552342F4503811F4E0FF04C03196691FCC
:100BFC00791F6BF050E8572711F45F93CFC05F3F1C
:100C0C0031F0660F000C57956795752F08955F931B
:100C1C0000200AF0CFC0C8C050E8192E1522880F4A
:100C2C00991F9527550F879550E8072E0522660FBB
:100C3C00771F7527550F67950895689401C0E89440
:100C4C005F93F2DF703818F07F3F08F4A7C056E1CD
:100C5C00571BAAF4519558300EF4593030F0EFEF81
:100C6C00FFEF6FEF7FE777F91AC077275523B9F0BD
:100C7C00EE0FFF1F661F771F5A95D1F710C077270D
:100C8C00583028F0EF2FF62F672F5850F9CF5523F7
:100C9C0031F076956795F795E7955A95D1F7002041
:100CAC000AF445D15F910895689401C0E894309797
:100CBC0060407040B1F0002426F0772312F40094C9
:100CCC0036D1172E7EE1112032F07A95EE0FFF1FF0
:100CDC00661F111CF9CFEF2FF62F612D5F938ADF62
:100CEC005F9108954F93AF01FD01DA01AB01BC0197
:100CFC00CA01402D012C142E4F910895EA0FFB1FB1
:100D0C00681F0895E095F0956095EF5FFF4F6F4F6A
:100D1C0008955F9381DF903871F150E8152604C077
:100D2C005F937ADF903839F1703821F1572F591BC6
:100D3C002BF112F4D7DFFACF583118F0AA27BB27C2
:100D4C008827583028F0AB2FB82F88275850F9CF68
:100D5C00552329F08695B795A7955A95D9F7502D17
:100D6C00512572F0CBDF38F46795F795E7957395BD
:100D7C0013F420C0B7DF3EDF5F910895D8F7FBCFA7
:100D8C00EA1BFB0B680B51F010F40094BBDF6623DD
:100D9C0092F3EE0FFF1F661F7A95CBF7EE27FF2716
:100DAC00662777275F910895EFEFFFEF6FE77FEFEF
:100DBC005F910895EFEFFFEF6FE77FE75F91089585
:100DCC005F932ADF703851F3903841F30124089473
:100DDC00791F23F41CF300203AF3ECCF0F921F93EE
:100DEC002F933F934F93112722279927689FA00198
:100DFC008F9F302D410D591F6B9F300D411D591F79
:100E0C008E9F27D0BF9F25D06A9F23D0BE9F1DD019
:100E1C00AF9F1BD0AE9F110D291F391F491F591FA2
:100E2C00E32FF42F652F522F4F913F912F911F914C
:100E3C000F9066232AF0550FEE1FFF1F661F02C08E
:100E4C0073954BF2CDDE5F910895100D211D391F66
:100E5C0002C0200D311D491F591F08955F93DCDE20
:100E6C00703821F411200AF49FCFA4CF903809F4E4
:100E7C0095CF01240894970B1BF4D4F30020F3CFE7
:100E8C00792F1F932F933F934F93112411272227D0
:100E9C0033274427552790E2AE17BF078607410733
:100EAC0030F0AE1BBF0B860B410B089401C088942D
:100EBC00551F221F331F111CAA1FBB1F881F441F45
:100ECC009A9551F7F901612D4F913F912F911F91F7
:100EDC00662332F0550FEE1FFF1F661F7A9543F203
:100EEC007FDE5F91089599239AF0772342F097174C
:100EFC0048F029F4AE17BF07860720F031F098941C
:100F0C008894089598940894089518948894089552
:100F1C007723C2F7971798F3A9F7EA17FB07680727
:100F2C0088F399F3ECCF0024AF0DB01D0895F09524
:100F3C0060957095E195FF4F6F4F7F4F0895FE2F91
:100F4C00FF0FFF0B6F2F7F2F08956F2F660F660B10
:100F5C00762F0895002498E0AA0F001C0E1A10F4A6
:100F6C000E0E01C0A1609A95B9F7EA2FA02D089535
:100F7C0039D0F0DF0EF4E19508953F934F935F93D2
:100F8C00002411244427552730E2AA0FBB1F881FC9
:100F9C00991F001C111C441F551F0E1A1F0A460BCB
:100FAC00570B28F40E0E1F1E461F571F01C0A160C1
:100FBC003A9559F7FD01BC01D001CA015F914F91DF
:100FCC003F910895E894A7FF02C0A1956894E7FDAE
:100FDC00E195C0DFEA2F0EF4E1950895CEDFFD0117
:100FEC00BC010895E894E7FF02C0E1956894A7FF5F
:100FFC0004C0A19500F8039400FA0895ED91FC91BA
:10100C0011970895ED91FD916D917C911397089531
:10101C00E881F9816A817B810895A881B9818A81EF
:10102C009B810895E883F9836A837B8308957A937F
:10103C006A93FA93EA9308959A938A93BA93AA932C
:10104C000895182E862F612D192E972F712D1B2E7A
:10105C00BF2FF12D1A2EAE2FE12D08953097604041
:10106C00704008955A934A933A932A931A930A9389
:10107C0008955D814C813B812A81198108810895F5
:00000001FF
